:020000040800F2
:100000003804002001010008090100080B01000864
:100010000D0100080F010008110100080000000098
:1000200000000000000000000000000013010008B4
:100030001501000800000000170100081901000860
:100040001B0100081B0100081B0100081B01000820
:100050001B0100081B0100081B0100081B01000810
:100060001B0100081B0100081B0100081B01000800
:100070001B0100081B0100081B0100081B010008F0
:100080001B0100081B0100081B0100081B010008E0
:100090001B0100081B0100081B0100081B010008D0
:1000A0001B0100081B0100081B0100081B010008C0
:1000B000B50900081B0100081B0100081B0100080E
:1000C0001B0100081B0100081B0100081B010008A0
:1000D0001B010008AD0E00081B0100081B010008F1
:1000E0001B0100081B0100081B010008DFF80CD0F1
:1000F00000F02EF800480047CD1200083804002018
:100100000648804706480047FEE7FEE7FEE7FEE7B1
:10011000FEE7FEE7FEE7FEE7FEE7FEE7550900081B
:10012000ED00000830B50B460146002020220124D6
:1001300009E021FA02F59D4205D303FA02F5491BB5
:1001400004FA02F52844151EA2F10102F1DC30BDCB
:10015000064C074D06E0E06840F0010394E8070014
:1001600098471034AC42F6D3FFF7C4FF7813000869
:100170009813000810B500F045FA4FF4803000F0F5
:10018000FBFA00BF00F056FB0128FBD14FF4E01151
:10019000000400F035FB012000F02CFB00BF3920EB
:1001A00000F0C0FA0028FAD0022000F037FB00204F
:1001B00000F0D6FA4FF4806000F004FB002000F05D
:1001C0000DFB10BD2DE9F041024600250026002060
:1001D00000230024002791F803C00CF00F0591F8CC
:1001E00003C00CF0100CBCF1000F03D091F802C05A
:1001F0004CEA050591F800C0BCF1000F31D014683D
:1002000000202BE04FF0010C0CFA00F3B1F800C015
:100210000CEA03069E4220D183004FF00F0C0CFA2B
:1002200003F7BC4305FA03FC4CEA040491F803C04D
:10023000BCF1280F06D14FF0010C0CFA00FCC2F8FB
:1002400014C00AE091F803C0BCF1480F05D14FF08B
:10025000010C0CFA00FCC2F810C0401C0828D1D3D5
:100260001460B1F800C0BCF1FF0F34DD5468002009
:100270002EE000F1080C4FF0010808FA0CF3B1F879
:1002800000C00CEA03069E4221D183004FF00F0C00
:100290000CFA03F7BC4305FA03FC4CEA040491F89A
:1002A00003C0BCF1280F05D100F1080C08FA0CF8C6
:1002B000C2F8148091F803C0BCF1480F07D100F1D7
:1002C000080C4FF0010808FA0CF8C2F81080401C26
:1002D0000828CED35460BDE8F081000008B5C020E6
:1002E000ADF8000018208DF8030001208DF8020001
:1002F00069460948FFF766FF0320ADF8000069462C
:100300000648FFF75FFF4FF47070ADF800006946D4
:100310000248FFF757FF08BD00080140000C0140EC
:1003200008B51C208DF8000000208DF80100012088
:100330008DF802008DF80300684600F00BF908BD47
:1003400008B525208DF8000000208DF8010002205E
:100350008DF8020001208DF80300684600F0FAF8DD
:1003600008BD0EB54FF43470ADF800004FF47A704C
:10037000ADF804000020ADF80200ADF806006946B3
:100380004FF0804000F040FD01221146900700F040
:10039000CEFB0121880700F09EFB0EBD00B587B0A3
:1003A0004FF43470ADF810004FF4FA60ADF814005B
:1003B0000020ADF81200ADF8160004A91D4800F0A9
:1003C00023FD6020ADF800000120ADF80200002000
:1003D000ADF80600ADF808006946164800F0B0FB1D
:1003E0006946144800F002FC6946124800F05EFCC1
:1003F0006946104800F0B4FC08210E4800F0ECFB00
:1004000008210C4800F044FC08210A4800F09EFC3A
:100410000821084800F0E2FC0121064800F04CFBEE
:100420000121044800F063FB0121024800F053FB66
:1004300007B000BD0004004000B587B04FF4347031
:10044000ADF810004FF4FA60ADF814000020ADF8DC
:100450001200ADF8160004A91D4800F0D5FC60207C
:10046000ADF800000120ADF802000020ADF8060054
:10047000ADF808006946164800F062FB694614486A
:1004800000F0B4FB6946124800F010FC69461048C1
:1004900000F066FC01210E4800F029FB08210C4801
:1004A00000F09AFB08210A4800F0F2FB08210848F6
:1004B00000F04CFC0821064800F090FC01210448A3
:1004C00000F0FAFA0121024800F005FB07B000BD78
:1004D000000800401FB50C20ADF80A004FF4E130D1
:1004E00000900020ADF80400ADF80600ADF808005B
:1004F000ADF80C006946074800F096FD012240F275
:100500002551044800F06BFD0121024800F024FD54
:100510001FBD00000038014008B54FF40070ADF871
:10052000000018208DF8030001208DF802006946B4
:100530000748FFF747FE4FF48060ADF80000042045
:100540008DF8030069460248FFF73CFE08BD000035
:100550000008014070B5002100230F22C47804B3C5
:10056000154C246804F4E064C4F5E064210AC1F188
:100570000403CA40447804FA03F184781440214308
:1005800009010E4C0678A155047804F01F050124DA
:10059000AC4005786D11AD0005F1E025C5F80041CE
:1005A00009E0047804F01F050124AC40044D0678EE
:1005B000761145F8264070BD0CED00E000E400E047
:1005C00080E100E029B1064AD2690243044BDA61B6
:1005D00004E0034AD2698243014BDA6170470000AC
:1005E0000010024029B1064A92690243044B9A6105
:1005F00004E0034A92698243014B9A61704700000C
:10060000001002400F48006840F001000D490860EA
:10061000084640680C4908400A4948600846006896
:100620000A490840074908600846006820F480200D
:1006300008600846406820F4FE0048604FF41F0040
:1006400088607047001002400000FFF8FFFFF6FED0
:1006500030B500210022002400232D4D6D6805F0E7
:100660000C0121B1042905D0082923D105E0294D29
:10067000056022E0274D05601FE0254D6D6805F4FB
:100680007012234D6D6805F48034022505EB92420B
:100690001CB9214D554305600BE01D4D6D6805F4F7
:1006A00000351DB11C4D5543056002E0194D554301
:1006B000056002E0174D056000BF00BF144D6D6876
:1006C00005F0F0010909154D6B5C0568DD404560DA
:1006D0000F4D6D6805F4E061090A104D6B5C4568CB
:1006E000DD4085600A4D6D6805F46051C90A0B4D07
:1006F0006B5C4568DD40C560054D6D6805F44041A3
:10070000890B074D6B5CC568B5FBF3F5056130BD22
:100710000010024000127A0000093D002000002075
:100720003000002010B501460022002300204A11AD
:10073000012A02D1094C236806E0022A02D1074CA3
:10074000236A01E0054C636A01F01F020124944012
:100750001C400CB1012000E0002010BD0010024040
:1007600001460020034A506820F0F0000843506022
:1007700070470000001002401149096821F48031DF
:100780000F4A11601146096821F480211160B0F50B
:10079000803F03D0B0F5802F0ED106E008490968EC
:1007A00041F48031064A116007E00549096841F4C7
:1007B000A021034A116000E000BF00BF70470000A5
:1007C0000010024001460020034A506820F4E06017
:1007D00008435060704700000010024001460020AE
:1007E000034A506820F4605040EAC10050607047EE
:1007F00000100240014908667047000000004242B4
:1008000002460020044B586820F47C1042EA0103A1
:100810001843014B58607047001002400146002009
:10082000034A506820F003000843506070470000FE
:100830000010024038B5002000900024002500BFC1
:100840003120FFF76FFF05460098401C009000988C
:10085000B0F5A06F01D0002DF2D03120FFF762FF7C
:1008600008B1012400E00024204638BD10B500F096
:1008700001F810BD0CB500200190009033480068CD
:1008800040F480303149086000BF3048006800F40F
:10089000003000900198401C0190009818B9019810
:1008A000B0F5A06FF1D12948006800F4003010B114
:1008B0000120009001E0002000900098012843D121
:1008C0002348006840F0100021490860084600688D
:1008D00020F0030008600846006840F0020008604D
:1008E0001A48406819494860084640684860084608
:1008F000406840F4806048600846406820F47C10FE
:1009000048600846406840F4E810486008460068BF
:1009100040F08070086000BF0C48006800F0007074
:100920000028F9D00948406820F0030007494860D2
:100930000846406840F00200486000BF0348406835
:1009400000F00C000828F9D10CBD00000010024096
:100950000020024010B51348006840F00100114922
:10096000086008464068104908400E49486008463B
:1009700000680E4908400B4908600846006820F4EA
:10098000802008600846406820F4FE0048604FF46C
:100990001F008860FFF76AFF4FF00060044908609D
:1009A00010BD0000001002400000FFF8FFFFF6FE3F
:1009B00008ED00E010B50121880700F0A7F8012834
:1009C00069D138480078022800D010BD3648007838
:1009D000001F08285DD2DFE800F0040F1A25303B25
:1009E0004651324800680A2190FBF1F084B221465A
:1009F0002F4800F006FA4DE02C4800680A2190FBD1
:100A0000F1F084B221462A4800F0F9F942E0274883
:100A100000680A2190FBF1F084B22146244800F0DE
:100A2000ECF937E0214800680A2190FBF1F084B22C
:100A300021461F4800F0DFF92CE01C4800680A211D
:100A400090FBF1F084B221461A4800F0DAF921E077
:100A5000164800680A2190FBF1F084B2214615483F
:100A600000F0CDF916E0114800680A2190FBF1F082
:100A700084B221460F4800F0C0F90BE00B48006833
:100A80000A2190FBF1F084B221460A4800F0B3F944
:100A900000E000BF00BF0121880700F019F800BF87
:100AA00093E700000600002007000020100000204F
:100AB000000400400008004021B1028842F080029A
:100AC000028004E002884FF67F731A40028070476C
:100AD000CA430282704721B1028842F001020280BB
:100AE00004E002884FF6FE731A400280704731B16D
:100AF000B0F8442042F40042A0F8442005E0B0F8E9
:100B00004420C2F30E02A0F84420704730B50246DC
:100B1000002000230024158A05EA0103958905EACF
:100B2000010413B10CB1012000E0002030BD1AB166
:100B300083890B43838102E083898B4383817047E0
:100B400070B5002400220023058C4FF6FE76354058
:100B50000584028C8388048B4FF68F752C40B51E5C
:100B60002C400D882C43751E2A400D892A434D8840
:100B70002A43144DA8420BD0134DA84208D0134D60
:100B8000A84205D0124DA84202D0124DA84213D15E
:100B90004FF6F7752A404D892A434FF6FB752A40D8
:100BA0008D882A434FF6FF652B404FF6FF552B40AB
:100BB0008D892B43CD892B4383800483CD88858603
:100BC000028470BD002C014000340140004001400F
:100BD00000440140004801400A460021018B4FF6C5
:100BE000F7731940114301837047000070B500246A
:100BF00000220023058C4FF6EF7635400584028CE9
:100C00008388048B48F6FF752C404FF6FF452C4037
:100C10000D884FF6FF7606EA05252C434FF6DF7563
:100C20002A400D8906EA05152A434D8806EA05156E
:100C30002A43154DA84202D0144DA8421DD14FF6AB
:100C40007F752A404D894FF6FF7606EA05152A433F
:100C50004FF6BF752A408D8806EA05152A434FF6E0
:100C6000FF352B404FF2FF752B408D8906EA850535
:100C70002B43CD8906EA85052B4383800483CD88E9
:100C80000587028470BD0000002C01400034014043
:100C90000A460021018B4FF2FF7319404FF6FF7394
:100CA00003EA0223194301837047000070B5002452
:100CB00000220023058C4FF6FF6635400584028C28
:100CC0008388848B4FF68F752C404FF6FC752C4033
:100CD0000D882C434FF6FF552A400D894FF6FF76BD
:100CE00006EA05252A434D8806EA05252A43154DBF
:100CF000A84202D0144DA8421DD14FF2FF752A40E0
:100D00004D894FF6FF7606EA05252A434FF6FF3553
:100D10002A408D8806EA05252A434EF6FF752B40AA
:100D20004DF6FF752B408D8906EA05152B43CD89BD
:100D300006EA05152B4383808483CD88858702844A
:100D400070BD0000002C0140003401400A46002123
:100D5000818B4FF6F7731940114381837047000070
:100D600070B5002200230024058C4EF6FF76354036
:100D70000584038C8488828B48F6FF752A404FF6E1
:100D8000FF452A400D884FF6FF7606EA05252A43DF
:100D90004DF6FF752B400D8906EA05352B434D882E
:100DA00006EA05352B430B4DA84202D00A4DA84256
:100DB00008D14BF6FF752C408D894FF6FF7606EA79
:100DC00085152C4384808283CD88A0F8405003840D
:100DD00070BD0000002C0140003401400A46002193
:100DE000818B4FF2FF7319404FF6FF7303EA022322
:100DF00019438183704781867047018770478187D7
:100E00007047A0F840107047002202881D4B98429E
:100E10000ED01D4B98420BD0B0F1804F08D01B4B29
:100E2000984205D01A4B984202D01A4B984204D1EE
:100E30004FF68F731A404B881A43174B984207D0CE
:100E4000164B984204D04FF6FF431A40CB881A4302
:100E500002808B8883850B8803850A4B98420BD0D0
:100E6000094B984208D00E4B984205D00D4B984242
:100E700002D00D4B984201D10B7A03860123838265
:100E800070470000002C0140003401400004004085
:100E900000080040000C004000100040001400401A
:100EA00000400140004401400048014010B540F2BC
:100EB00025511B4800F069F801282FD1184800F08F
:100EC0001FF9184908700846017817480278007819
:100ED000401C154B1870154881540078FF281DD10F
:100EE00018460078052819D10020194608700F48C7
:100EF00040780F4908700D4880780E4908700B48FB
:100F0000C0780A49097900EB01200B4908600846BE
:100F100002680848017809A000F0FCF810BD000044
:100F200000380140050000200A00002000000020D9
:100F30000600002007000020100000206368616E9A
:100F40006E656C3A25642C646573745F76616CA37E
:100F5000BA25640D0A00000021B1828942F40052D2
:100F6000828104E082894DF6FF731A4082817047C6
:100F700002460020B1F5007F00D100BF13880B406E
:100F80000BB1012000E00020704770B5024600243C
:100F900000230025002040F66A16B14200D100BFB0
:100FA000C1F3421501F01F03012606FA03F3012DD8
:100FB00002D19689334006E0022D02D1168A3340D1
:100FC00001E0968A33400C12012606FA04F41688D2
:100FD000344013B10CB1012000E0002070BDF0B529
:100FE0000346002400260025002040F66A17B94277
:100FF00000D100BF1846C1F3421401F01F060127BB
:1010000007FA06F5012C01D10C3004E0022C01D1C5
:10101000103000E014301AB107682F43076002E077
:101020000768AF430760F0BD2DE9F04786B005467D
:101030000E460024A24600BFA1460027B08900B199
:1010400000BF2F462C8A4CF6FF700440F088044302
:101050002C82AC894EF6F3100440B08831890843E5
:10106000718908430443AC81AC8A4FF6FF400440C9
:10107000B0890443AC8201A8FFF7EAFA1F4887420F
:1010800002D1DDF810A001E0DDF80CA0A88900F481
:10109000004040B10AEBCA0000EB0A103168490079
:1010A000B0FBF1F807E00AEBCA0000EB0A10316868
:1010B0008900B0FBF1F86420B8FBF0F004012009CE
:1010C000642101FB1089A88900F4004040B132205E
:1010D00000EBC900B0FBF1F000F00700044308E0AA
:1010E000322000EB09106421B0FBF1F000F00F009A
:1010F00004432C8106B0BDE8F087000000380140B1
:1011000001468888C0F308007047C1F30802828056
:10111000704700000FB4054B10B503A9044A0298AC
:1011200000F018F810BC5DF814FB0000A9120008CC
:101130003400002002E008C8121F08C1002AFAD1BA
:1011400070477047002001E001C1121F002AFBD147
:10115000704700002DE9FF4F89B09B4604460025EB
:1011600006E025280BD05A460B999047641C6D1C4D
:1011700020780028F5D10DB02846BDE8F08F002773
:10118000B8460122474900E0074314F8013F203BDD
:1011900002FA03F00842F7D120782E2819D114F86A
:1011A000010F47F004072A280ED06FF02F02207895
:1011B000A0F1300109290CD808EB880102EB4101AC
:1011C00000EB0108641CF2E70A98641C50F8048BD9
:1011D0000A9020780028CED0642808D0692806D04C
:1011E00075281ED05A460B9990476D1C58E00A99F5
:1011F0004FF00A0901C90A91002802DA40422D2164
:1012000002E0390504D52B218DF82010012103E0DF
:10121000F90704D02021F7E78A4608AE0DE0002147
:10122000FAE70A994FF00A0901C90A91F7E7494616
:10123000FEF778FF303106F8011D0028F7D1ADEB3D
:10124000060000F12009780701D44FF00108C845D5
:1012500002DDA8EB090000E000208046002706E040
:1012600008A85A46C05D0B9990476D1C7F1C5745D6
:10127000F6DB04E030205A460B9990476D1CB8F11C
:101280000001A8F10108F5DC05E016F8010B5A464B
:101290000B9990476D1CB9F10001A9F10109F4DC2B
:1012A000641C65E70928010070B504460D46A1B22B
:1012B0000548FFF72AFF00BF80210348FFF758FECB
:1012C0000028F9D0204670BD00380140FFF79AF998
:1012D000FEF750FF01210420FFF784F901210820C7
:1012E000FFF780F901218803FFF77CF90121084607
:1012F000FFF768F901210220FFF764F901210420BA
:10130000FFF760F9FFF71CF8FFF70AF8FEF7E6FFB2
:10131000FFF702F9FFF7DEF8FFF723F8FFF73EF8D3
:10132000FFF78AF80CA0FFF7F5FE11A0FFF7F2FE19
:1013300010E010480078012806D0022805D00928BE
:1013400004D00B2804D102E003E002E001E000E059
:1013500000BF00BFEDE70000526F6F7441726D4235
:101360006F74746F6D2D64726976656E200D0A005E
:101370000D0A00000600002098130008000000205D
:101380003800000034110008D01300083800002095
:1013900000040000441100080000000000000000EC
:1013A0000000000000000000E80300000000000052
:1013B0000000000000000000000000000102030423
:1013C00001020304060708090204060800000000E1
:04000005080000ED02
:00000001FF
